:101E950048543A253032640054656D704E6F7700B2
:101EA5002530336400436F6E54656D700053746163
:101EB50074653A4F4E0053746174653A4F46460057
:042074004100A00087
:1012FC00E4900000F0A3F090000804F0E4A3F0A345
:10130C00F0A3F0A3F0A3F0A3F0FE7F06FD7B017A1F
:10131C00007902120E4D7E007F077D007B017A0062
:10132C00790F120E4D53B1FC53B2FC121FD912207F
:10133C0032D2AF7F0A7E00120003121B5653B1BF8C
:10134C0053B2BFD2B67F0A7E001200035393CF5321
:10135C0094CF5395E55396E5C2847FF47E01120039
:10136C0003D28412168EE4FDFF121EF553933F53E5
:10137C00943F53C9F353CAF390001974FFF0A3744C
:10138C001EF0A37495F090000DE0FFA3E090001CFC
:10139C00CFF0A3EFF07B017A00790F120EDE7B0108
:1013AC007A00790F7D067F2C121899121ADC9000A6
:1013BC00087401F0E4900000F0900000E0FF248B32
:1013CC00F582E43400F583E0FE74022FF582E434F8
:1013DC0000F583E06E6005E4900008F0900000E0FA
:1013EC0004F0E0B407D37BFF7A1E799D7D027F0465
:1013FC00121899900008E0704BFD7F04121F72E4E4
:10140C00FD7F05121F727B017A00798B7D047F0CA6
:10141C00121899E4900000F0900000E0FF248BF586
:10142C0082E43400F583E0FE74022FF582E434008C
:10143C00F583EEF0900000E004F0E0B406DA9000E2
:10144C00087401F090001974FFF0A3741EF0A374DB
:10145C00A5F090006BE0FFA3E090001CCFF0A3EF91
:10146C00F07B017A007987120EDE7BFF7A1E79AA57
:10147C007D027F441218997B017A0079877D047F65
:10148C0054121899E4FDFF121F72E4FD7F01121F24
:10149C00729000A0E07BFFB4010A7A1E79B2E4FDE1
:1014AC007F2080087A1E79BBE4FD7F1B1218997F80
:0C14BC00E87E03120003121C790213B733
:10000300E4FDFCC3ED9FEC9E5015E4FBFA0BBB0033
:0F001300010ABA04F8BB4CF50DBD00010C80E4E6
:0100220022BB
:04213B007F03DFFE41
:01213F00227D
:05212F00007F18DFFE37
:012134002288
:10206000AD07AC06ED1DAE0470011C4E60051221DB
:042070002F80F122AA
:10204B0053544154454F4E0053544154454F46460B
:05205B00005345540094
:0D207800410082004100810042006B0064C5
:101FD90053873F759850438E40538EFE53890F4364
:0F1FE9008920758BDC758DDCC2ABD28ED2AC2219
:1020320043BA04438410538430438E0475D7E07549
:09204200D6FE438E1043AF1022BC
:0B210C008F85E58430E1FB5384FD2249
:082117008F993099FDC2992255
:101DFD00900016EBF0A3EAF0A3E9F0900016E0FBDB
:101E0D00A3E0FAA3E0F9120D576017900016A3E4B2
:101E1D0075F001120DD7A9F0FA120D57FF12210C12
:031E2D0080D92237
:101E6300900016EBF0A3EAF0A3E9F0900016E0F976
:101E7300A3E0FAA3E090001CC9F0A3EAF0A3E9F001
:101E83007B017A00796D1215CFE94A4B6002D322A8
:021E9300C32268
:101E300090009DEBF0A3EAF0A3E9F090009DE0FB99
:101E4000A3E0FAA3E0F9120D57601790009DA3E4F8
:101E500075F001120DD7A9F0FA120D57FF122117D4
:031E600080D92204
:06213500AE071221172283
:030023000220B602
:0F20B600C2AC309802C298309902C299D2AC32B3
:0F2086007F1490006DE4F0A3DFFCE4900081F084
:012095002228
:03009300021D74D7
:101D7400C0E0C083C082C0D053AFEFE58430E0211F
:101D84005384FE900081E0246DF582E43400F583F1
:101D9400E585F0900081E004F0E0C394144002E48F
:101DA400F0E58430E1035384FD43AF10D0D0D082FA
:051DB400D083D0E032F5
:1017F400900019ECF0A3EDF0900016EBF0A3EAF0E2
:03180400A3E9F065
:101807004A4B7003FEFF22E490001BF0A3F0A3F005
:10181700A3F0900019E0FEA3E0FFC390001EE09F35
:10182700EE6480F890001DE0648098505C9000168C
:10183700E0FBA3E0FAA3E0F9120D57FF643B604910
:10184700EFC394304029EFD394395023EF24D0FBD2
:10185700E434FFFA90001BE0FEA3E0FF7C007D0A62
:10186700120DAFEF2BFFEE3A90001BF0A3EFF090B5
:101877000017E475F001120DC190001EE004F0702E
:101887009190001DE004F0808990001BE0FEA3E02A
:01189700FF51
:01189800222D
:101C79007BFF7A20794B121E63500B53AFEF900014
:101C8900A07401F080387BFF7A207953121E6350CB
:101C99000A53AFEFE49000A0F080237BFF7A20790C
:101CA9005C121E63501853AFEF7B017A00796D7D8A
:101CB900147C001217F490006BEEF0A3EFF01220E1
:041CC900860220323D
:101FF8005468652074696D652069733A000D0A009C
:0D20080054686520646174652069733A00B6
:101C2200900098EFF0A3EBF0A3EAF0A3E9F0122002
:101C3200157FA2121F4D1220D420D538900098E0B3
:101C4200FF121F4D1220D420D52A900099E0FBA349
:101C5200E0FAA3E0F9120D57FF121F4D90009AE42B
:101C620075F001120DC11220D420D50890009CE01D
:071C720014F070D602211FDF
:1000260090001DEFF0A3EBF0A3EAF0A3E9F0122095
:10003600157FA2121F4D1220D420D54E90001DE030
:10004600FF121F4D1220D420D5401220157FA31277
:100056001F4D1220D420D532121F9690001EE0FBB1
:10006600A3E0FAA3E0F9EF120D9D90001FE475F0EE
:1000760001120DC1900021E0640160031221279056
:0D0086000021E014F070D11220C502211FEE
:10193B007B017A0079169000217407F07F02120068
:10194B0026900016E0FFC4540775F00AA4FEEF546E
:10195B000F2E900046F0900017E0FFC4540775F06F
:10196B000AA4FEEF540F2E900052F0900018E0FFE7
:10197B00C4540375F00AA4FEEF540F2E900068F0C8
:10198B00900019E0FFC4540375F00AA4FEEF540F46
:10199B002E900067F090001AE05407900051F090E1
:1019AB00001BE0FFC4540175F00AA4FEEF540F2E88
:1019BB0090005DF090001CE0FFC4540F75F00AA47A
:0919CB00FEEF540F2E900066F0AF
:0119D40022F0
:10174500900046E075F00A84C454F0FFE075F00A95
:1017550084E5F02F900091F0900052E075F00A8436
:10176500C454F0FFE075F00A84E5F02F900092F084
:10177500900068E075F00A84C454F0FFE075F00A43
:1017850084E5F02F900093F0900067E075F00A84EF
:10179500C454F0FFE075F00A84E5F02F900094F052
:1017A500900051E075F00A84900095E5F0F0900006
:1017B5005DE075F00A84C454F0FFE075F00A84E535
:1017C500F02F900096F0900066E075F00A84C454FE
:1017D500F0FFE075F00A84E5F02F900097F07B01AB
:0F17E5007A00799190009C7407F07F02021C2219
:101B5600E490005CF012193B900046E0C3943C40D0
:101B66000690005C7401F0900052E0C3943C40067D
:101B760090005C7401F0900068E0C39418400690F1
:101B8600005C7401F0900051E0C394074006900099
:101B96005C7401F0900067E0D3941F400690005CEF
:101BA6007401F090005DE0C3940C400690005C74F4
:101BB60001F0900066E0D39463400690005C7401E7
:021BC600F0220B
:1014C8007E007F067D007B017A00795E120E4D7EDC
:1014D800007F097D007B017A007953120E4D1219A5
:1014E8003B900068E0C3940A400DE075F00A84243C
:1014F8003090005EF0800690005E7430F0900068D6
:10150800E075F00A84E5F0243090005FF0A3743AA7
:10151800F0900052E075F00A842430900061F09059
:101528000052E075F00A84E5F02430900062F090F3
:101538000066E075F00A842430900053F09000664D
:10154800E075F00A84E5F02430900054F0A3742D7F
:10155800F090005DE075F00A842430900056F09019
:10156800005DE075F00A84E5F02430900057F0A3A0
:10157800742DF0900067E075F00A842430900059CB
:10158800F0900067E075F00A84E5F0243090005A86
:10159800F07BFF7A1F79F8121E307B017A00795EA2
:1015A800121E307BFF7A207905121E307BFF7A20CD
:1015B8007908121E307B017A007953121E307BFFA6
:0715C8007A207905021E30B4
:0C1F2400C2CA121F30C2CB121F30D2CA3A
:101F3000E4FFFEE4FDFC0DBD00010CED64074C70F8
:0C1F4000F50FBF00010EEF64024E70E7C9
:011F4C002272
:10201500D2CBD2CA121F3020CB02C322C2CB121F91
:0D2025003030CB02C322C2CB121F30D322B9
:08211F00121F24D2CB021F3075
:08212700121F24C2CA021F307E
:0F20C500C2CA121F30D2CB121F2BC2CA021F3049
:0E20D400D2CB121F2BA2CB92D5C2CA021F3054
:021F4D00AB07E0
:101F4F007A08AF021AEF6018C2CA121F30EB30E7DF
:101F5F0004D2CB8002C2CBEB25E0FB121F2B80E219
:021F6F00C2CAE4
:011F7100224D
:101F96007B08E4FAD2CBAF031BEF6012EA25E0FA26
:101FA600C2CA121F2B30CBEEEA4401FA80E8C2CA3D
:021FB600AF0278
:011FB8002206
:102096002530332E303166002530322E3032660040
:101A6100E4900017F0A3F0A3F0A304F0D2B67F1A1C
:101A71007E00122060C2B67F4B7E00122060D2B67B
:101A810030B63A90001AE0B40133900019E004F046
:101A91007006900018E004F07F017E00122060D3F0
:101AA100900019E09440900018E0941F4005E490E4
:101AB100001AF0A2B6E433900017F080C3D2B67FCB
:101AC1000A7E001220607E007F037D007B017A0088
:0A1AD1007987120E4D900017E0FF18
:011ADB0022E8
:051CCD00900017EFF08C
:101CD200E4A3F0A3F0900017E030E010C2B61221A6
:101CE2003BD2B67F067E00122060800EC2B67F060F
:101CF2007E00122060D2B612213B900017E0C3137F
:101D0200F0900019E004F07006900018E004F0C3AF
:0E1D1200900019E09408900018E0940040B78B
:011D200022A0
:101BC800E4900017F0D2B67F01FE122060E4900086
:101BD80018F0A3F0900017E0FFC313F0C2B612216B
:101BE8003BD2B612213B30B607900017E04480F094
:101BF8007F067E00122060900019E004F0700690C5
:101C08000018E004F0C3900019E09408900018E070
:091C1800940040C0900017E0FFA9
:011C210022A0
:101DB900121A617FCC121CCD7F44121CCD121A61FC
:101DC9007FCC121CCD7FBE121CCD121BC8900016F1
:101DD900EFF0121BC8E490008AF0EFFE900016E0C5
:101DE900FDEDFFAC06E412098AE4FBFA7980783D3F
:031DF900120806C7
:011DFC0022C4
:101ADC007E007F067D007B017A00798B120E4D1201
:101AEC001DB9900083120DFBE4FFFE7DC87C429073
:101AFC000083E0F8A3E0F9A3E0FAA3E0FB12090CE1
:101B0C00900019600E400C74FFF0A37420F0A374C5
:101B1C0096800A74FFF0A37420F0A3749EF09000DA
:101B2C0083E0FCA3E0FDA3E0FEA3E0FF90001C1209
:101B3C000DFB7B017A00798B120EDE53AFEF7B012C
:0A1B4C007A00798B121DFD02203291
:1020A60043A20453A2F7E4F5CF75CDC075CED02276
:101EC500A42EF582E435F0F583E5822496F582E5C6
:0A1ED500833400F583E493FF7D01E0
:101EDF00ED7004C2858002D2858FCFE5CD30E7FB50
:061EEF0075CDC0AFCF224B
:101FB900AE07ED24B0FFE4FD121EDFEE54F0C45469
:101FC9000F4410FF121EDFEE540F4401FF021EDF03
:041EF500AE07AC0583
:101EF900EEC394085024EE24B0FFE4FD121EDF7FE8
:101F090002121EDF7F10121EDFE4FBAF047D0112F7
:0A1F19001EDF0BEBB480F40E80D63F
:011F2300229B
:021F7200AE05BA
:101F7400EF24B0FFE4FD121EDF7F02121EDF7F108C
:101F8400121EDFE4FCAF067D01121EDF0CECB480F0
:011F9400F458
:011F95002229
:041D2100AC07A9055D
:101D2500E4FEEB24E0FAECD3947F4004E4FC0909DB
:101D3500AF04AD01121FB9E4FE75F010EA121EC51D
:101D45000EEEB408F4AF04E904FD121FB9E4FE7504
:101D5500F010EAA42EF582E435F0F583E582249EA1
:0E1D6500F582E5833400121ED80EEEB408E1BC
:011D7300224D
:10189900900016EFF0A3EDF0A3EBF0A3EAF0A3E9B3
:0118A900F04E
:1018AA00E4A3F0FEA3F0900018E0FBA3E0FAA3E0A3
:1018BA00F990001CE0F582758300120D70607124A6
:1018CA00E090001BF0900016E0D394784006E4F014
:1018DA00A3E004F0900016E0FFA3E0FD121FB9E4B4
:1018EA00FE90001BE075F010121EC50EEEB408F152
:1018FA00900016E0FFA3E004FD121FB9E4FE900079
:10190A001BE075F010A42EF582E435F0F583E5822C
:10191A00249EF582E5833400121ED80EEEB408DE4A
:10192A00900016E02408F090001CE004F00218B0C1
:01193A00228A
:10168E001220A67F0A7E00120003D2A47F0A7E00DB
:10169E00120003C2A47FC87E00120003E4FD7FAED9
:1016AE00121EDFE4FF121EDF7F10121EDF7F4012BC
:1016BE001EDF7F81121EDF7FCF121EDF7FA1121E63
:1016CE00DF7FC8121EDF7FA6121EDF7FA8121EDF6D
:1016DE007F3F121EDF7FD3121EDFE4FF121EDF7F5D
:1016EE00D5121EDF7F80121EDF7FD9121EDF7FF123
:1016FE00121EDF7FDA121EDF7F12121EDF7FDB1259
:10170E001EDF7F40121EDF7F20121EDF7F02121EA1
:10171E00DF7F8D121EDF7F14121EDF7FA4121EDFED
:10172E007FA6121EDF7FAF121EDF7DFFE4FF121EAB
:07173E00F5E4FDFF021FB9F5
:10009600000000000000000000000000000000005A
:1000A600000000F8000000000000003330000000EF
:1000B60000100C06100C06000000000000000000F6
:1000C60040C07840C0784000043F04043F04040068
:1000D600007088FC08300000001820FF211E000078
:1000E600F008F000E018000000211C031E211E008D
:1000F60000F00888700000001E2123241927211013
:1001060010160E00000000000000000000000000B5
:10011600000000E01804020000000007182040005C
:1001260000020418E000000000402018070000004C
:10013600404080F0804040000202010F01020200B0
:10014600000000F0000000000101011F0101010094
:10015600000000000000000080B0700000000000F9
:100166000000000000000000000101010101010182
:100176000000000000000000003030000000000019
:1001860000000000806018040060180601000000EE
:1001960000E010080810E000000F102020100F00EB
:1001A600001010F8000000000020203F2020000072
:1001B60000700808088870000030282422213000CA
:1001C60000300888884830000018202020110E00D2
:1001D6000000C02010F8000000070424243F24007B
:1001E60000F80888880808000019212020110E0050
:1001F60000E0108888180000000F112020110E0062
:1002060000380808C83808000000003F0000000059
:100216000070880808887000001C222121221C001A
:1002260000E010080810E0000000312222110F0043
:10023600000000C0C00000000000003030000000D8
:100246000000008000000000000080600000000048
:100256000000804020100800000102040810200061
:1002660040404040404040000404040404040400AC
:100276000008102040800000002010080402010041
:10028600007048080808F000000000303601000041
:10029600C030C828E810E0000718272423140B00F4
:1002A6000000C038E0000000203C2302022738206E
:1002B60008F8888888700000203F202020110E0052
:1002C600C030080808083800071820202010080049
:1002D60008F808080810E000203F202020100F0032
:1002E60008F88888E8081000203F202023201800FE
:1002F60008F88888E8081000203F20000300000066
:10030600C03008080838000007182020221E020006
:1003160008F808000008F808203F210101213F20C5
:10032600000808F8080800000020203F20200000F0
:1003360000000808F8080800C08080807F000000E0
:1003460008F888C028180800203F20012638200019
:1003560008F8080000000000203F20202020300080
:1003660008F8F800F8F80800203F003F003F20009A
:1003760008F830C00008F808203F200007183F00A2
:10038600E01008080810E0000F10202020100F00D1
:1003960008F808080808F000203F210101010000C4
:1003A600E01008080810E0000F18242438504F0009
:1003B60008F8888888887000203F2000030C3020C9
:1003C60000708808080838000038202121221C0007
:1003D600180808F8080818000000203F2000000050
:1003E60008F808000008F808001F202020201F0039
:1003F6000878880000C83808000007380E01000099
:10040600F80800F80008F800033C0700073C030062
:10041600081868808068180820302C03032C3020C8
:100426000838C800C83808000000203F2000000037
:1004360010080808C838080020382621202018008F
:10044600000000FE020202000000007F4040400063
:10045600000C30C000000000000000010638C0009B
:1004660000020202FE000000004040407F00000043
:100476000000040202020400000000000000000068
:100486000000000000000000808080808080808066
:10049600000202040000000000000000000000004E
:1004A60000008080808000000019242222223F2044
:1004B60008F8008080000000003F112020110E0087
:1004C6000000008080800000000E11202020110016
:1004D600000000808088F800000E112020103F20C8
:1004E6000000808080800000001F2222222213004C
:1004F600008080F0888888180020203F2020000097
:100506000000808080808000006B9494949360004B
:1005160008F8008080800000203F210000203F2056
:1005260000809898000000000020203F2020000056
:10053600000000809898000000C08080807F000046
:1005460008F8000080808000203F24022D30200023
:10055600000808F8000000000020203F20200000CE
:100566008080808080808000203F20003F20003FE8
:100576008080008080800000203F210000203F20F6
:100586000000808080800000001F202020201F00A7
:10059600808000808000000080FFA12020110E00D6
:1005A6000000008080808000000E112020A0FF80C7
:1005B600808080008080800020203F212000010074
:1005C60000008080808080000033242424241900C9
:1005D600008080E0808000000000001F20200000D6
:1005E6008080000000808000001F202020103F2017
:1005F600808080000080808000010E3008060100A7
:1006060080800080008080800F300C030C300F004B
:1006160000808000808080000020312E0E31200076
:10062600808080000080808080818E7018060100A6
:1006360000808080808080000021302C22213000C4
:1006460000000000807C020200000000003F4040E5
:1006560000000000FF00000000000000FF00000096
:100666000002027C800000000040403F00000000C5
:100676000006010102020404000000000000000060
:1006860000E010080810E000000F102020100F00F6
:10069600001010F8000000000020203F202000007D
:1006A60000700808088870000030282422213000D5
:1006B60000300888884830000018202020110E00DD
:1006C6000000C02010F8000000070424243F240086
:1006D60000F80888880808000019212020110E005B
:1006E60000E0108888180000000F112020110E006D
:1006F60000380808C83808000000003F0000000065
:100706000070880808887000001C222121221C0025
:1007160000E010080810E0000000312222110F004E
:1007260000FC848484FC001010101010FF101000D0
:10073600003F1010103F0000010640807F000000BF
:1007460000F8010600F0121212F2020202FE000088
:1007560000FF0000001F1111111F0040807F0000E4
:100766000000000000000000000000000000000083
:100776000000363600000000000000000000000007
:100786000101010101010101010101010101010153
:100796000101010101010101010101010101010143
:1007A6000101010101010101010101010101010133
:1007B6000101010101010101010101010101010123
:1007C6000101010101010101010101010101010113
:1007D6000101010101010101010101010101010103
:1007E60001010101010101010101010101010101F3
:1007F60001010101010101010101010101010101E3
:0E20E200EF24FE6006047005C28622C287222B
:0E20F000EF24FE6006047005D28622D28722FD
:0E20FE00EF24FE6006047005B28622B287222F
:05214000C286C28722E7
:05214500D286D28722C2
:10080600EC4D6011E8497017ED33EC3304600DE4EC
:10081600FCFFFEFD22E933E8330470F80209F81202
:1008260009C358046009E4CC248150062850090203
:100836000A022840030209FFC0E0EB4A7044B9806F
:1008460006D0E0FB0209EEEF4E701CBD8008EBFF00
:10085600EAFEE9FD80EBE98DF0A4FEE5F00208EF83
:10086600E9CDF9EAFEEBFFEF89F0A4FCE5F0CE89CD
:10087600F0A42EFFE435F0CD89F0A42DFEE435F08A
:100886008067EF4E7005BD80D780C3EF8BF0A4ACB8
:10089600F0EE8BF0A42CFCE435F0F8EF8AF0A42CF3
:1008A600E5F038FCE433CB8DF0A42CFCE5F03BF806
:1008B600EE8AF0A42CFCE5F038F8E433CF89F0A4F6
:1008C6002CFCE5F038CF3400CE89F0A42FFFE5F0FC
:1008D6003EFEE433C98DF0A42EFEE5F039CD8AF054
:1008E600A42FFFE5F03EFEE43DFD33D0E0FB5007CC
:1008F6000BBB000F020A02EC2CFCEF33FFEE33FEBB
:06090600ED33FD0209DAE9
:10090C0074F8CC6480CCC86480C8F58204604FC392
:10091C00EB9FF5F0EA9E42F0E99D42F0E89C45F031
:10092C00603C501DE5825FFFE582D313CB5BCBF4BB
:10093C002B5582FB50280ABA002409B900200880E4
:10094C001DE5825BFBE582D313CF5FCFF4C3132F7E
:10095C005582FF50090EBE00050DBD00010CC3EB06
:10096C009FF5F0EA9E42F0E99D42F0E89C45F0606C
:09097C0007CC4820E701B3EC228E
:1009850075F020800E75F010800575F0087D007EED
:10099500007F003392D530D503120DEDEC334010B6
:1009A500EF33FFEE33FEED33FDEC33FCD5F0ED22F6
:0E09B500E5F0247EA2D513CC92E7CDCEFF2232
:100E7900E5082419F582E43400F583E00508229099
:100E89000016300703900019E475F001120E0702ED
:100E99000D572000E97F2ED2008018EF540F2490BF
:100EA900D43440D4FF30040BEF24BFB41A005003EC
:100EB9002461FFE50960021509050CE50C700205BE
:100EC9000B30070E900016E475F001120E07EF02C1
:100ED9000D9D0221357403D2078003E4C207F5088A
:100EE900900016120E1EE4F509F50BF50CE50960E4
:100EF900077F20120EBC80F5750AFFC201C200C22D
:100F090002C203C205C206C208120E88FF700D3064
:100F190007057F00120ECDAF0CAE0B22B4255FC2C0
:100F2900D5C204120E88FF24D0B40A00501A75F0F5
:100F39000A780930D50508B6FF0106C6A426F620A9
:100F4900D5047002D20380D924CFB41A00EF50041B
:100F5900C2E5D2040211BFD20180C6D20080C0D23C
:100F69000280BCD2D580BAD20580B47F20120EBCD3
:100F79002002077401B5090040F1120E79FF120E23
:100F8900BC020EF6D208D2068095120E79FB120E1B
:100F990079FA120E79F94A4B700679BD7A127BFFFC
:100FA90020022EE509602A7E008E82758300120DCB
:100FB9007060060EEE650A70F0C2D5EBC0E0EAC0BB
:100FC900E0E9C0E0EE121220D0E0F9D0E0FAD0E07A
:100FD900FB120D57FF60AAEBC0E0EAC0E0E9C0E0F0
:100FE900120EBCD0E02401F9D0E03400FAD0E0FBC5
:100FF900E50A0460DCD50AD98087D20280A21212E0
:101009000260F7E50A700104120A0DA90A600DE5EC
:101019000A600914F50A1212AAEF60F3EA30E7022E
:10102900F404C3995079EAF4250A0430E701E40489
:10103900F50A800D12120260C1EA050A250A120A90
:101049000DEA900045F030E701E4250A04D50A04C9
:1010590020050114121220E4C0E01212AA900045E2
:10106900E0601320E70714F0120EA4802204F0D0E8
:10107900E014C0E07F00120EA4E50A6007120E9B7F
:10108900150A800B300503120E9BD0E0020EF6D034
:10109900E00480C4121202609EE50A04120A0D904F
:1010A9000045EAF0E50A2005026001042404121251
:0110B9002016
:1010BA0074FF04C0E01212AA120EA4E50A20050267
:1010CA006003120E9BD0E0B50AE87F45120EAE907F
:1010DA000045E07F2B30E7047F2DF404C0E0120EB8
:1010EA00BCD0E075F00A84C0F0120EA5D0E0120E52
:1010FA00A5020EF6791080027908C206C208800895
:10110A00D2D5790A8004790AC2D5E50A047002F5B3
:10111A000AE4FAFDFEFF120E79FC7B082001131285
:10112A000E79FD7B1030000A120E79FE120E79FF3D
:10113A007B20EC3382D592D55013C3E43000069F4E
:10114A00FFE49EFEE42001039DFDE49CFCE4CBF851
:10115A00C201EC700CCFCECDCCE824F8F870F38045
:10116A0017C3EF33FFEE33FEED33FDEC33FCEB3305
:10117A00FB994002FB0FD8E9EB300105F8D0E0C437
:10118A0048B201C0E00AEC4D4E4F78207B0070C295
:10119A00EAB50A0040BCC0E0121222D0F0D0E0202A
:1011AA000104C4C0E0C4B201C0F0120EA5D0F0D54B
:1011BA00F0EB020EF6120E270F935310FE580F642F
:1011CA004C0F604211024F110A44110A490F794328
:1011DA00111055103D46109D4510074712DD500F5E
:1011EA00682D0F6C2E0F8F2B0F70230F8D2012C6B8
:1011FA002A0F284800000F87E50AB4FF03750A067C
:10120A00120E79FC120E79FD120E79FE120E79FF7A
:10121A0090003E020A4A790AA2D520031430050931
:10122A00B910020404B9080104A2D520060250012B
:10123A00042002689202B509005034C0E07F2030D1
:10124A0003197F30A20272067205500F121279C278
:10125A0002C206C205C2087F30800F300503E9C00A
:10126A00E0120EBC300503D0E0F9D0E0B509CC306D
:10127A0005177F30B9100C120EBC7F583004077F57
:10128A00788003B90803120EBC3002057F2D020EC6
:10129A00BC7F202008F87F2B2006F322920280CF01
:1012AA007F00B40700500B243EF582E43400F58336
:1012BA00E0FF22286E756C6C2900D201120E79307B
:1012CA0001F8C201780930D50108F6020F282D501D
:1012DA00434958120E792403B405004001E49012E0
:1012EA00D893120EAD743A120EADD20375090402E8
:0212FA0010FEE4
:1009C300E9D2E7C933E833F892D5EDD2E7CD33EC7A
:0709D30033FC5002B2D522F3
:1009DA00EC30E7100FBF000C0EBE00080DBD00047E
:1009EA000BEB6014A2D5EB13FCED92E7FD2274FF2A
:1009FA00FCFDFEFF22E480F8A2D574FF13FC7D8083
:030A0A00E480EF96
:100A0D00F920E73624F950037907E4F42402FBE5D5
:100A1D0082158270021583DBF6E024FB501BE96022
:100A2D0014E4F0E582158270021583E004F0B40A37
:0D0A3D0008E4F0D9EE7401F00A22C2D522BF
:100A4A00ED33EC3392D5FA602AB4FF33EDC2E77B7B
:100A5A00FF60067A0A796FE4227A0A797820D50447
:100A6A007A0A7973224E614E002B494E46002D496F
:100A7A004E4600E47A08F0A3DAFC7B00740722C031
:100A8A0083C082ECC0E0EDC0E0EEC0E0EFC0E0EA77
:100A9A0075F010A4CAABF075F04DA42BFBE435F049
:100AAA00FCEA2410FAEB34C5FBEC34D9FCEDC2E7BE
:100ABA00FF75F056A4F42411C5F0F434C58FF0A4E0
:100ACA002AE5F03BE43CF020E714120D17D0E0FFD2
:100ADA00D0E0FED0E0FDD0E0FC120C4A8014F40411
:100AEA00120D17D0E0FFD0E0FED0E0FDD0E0FC12FE
:100AFA000806D082D083E0FAEDD2E7CD33EC332476
:100B0A0082FBE4C3CF33CFCE33CECD33CD33DBF349
:100B1A007B0775F00A846004F0A31B0AE5F0F0A3D2
:100B2A008FF0740AA4FFACF08EF0740AA42CFEAC09
:100B3A00F050010C8DF0740AA42CFDE435F0F0A3FA
:050B4A00DBDE74072250
:100B4F000209F8E86480F8E933E83360110460F0D3
:100B5F00ED33EC337009E8FCE9FDEAFEEBFF22040C
:100B6F0060DED3EB9FEA9EE99DE8C2E78CF0C2F707
:100B7F0095F0400CE8CCF8E9CDF9EACEFAEBCFFBD3
:100B8F001209C385D0F05804700320D5B3E8047060
:100B9F00075002B2D5020A0292D5EC0460F7E4CCFA
:100BAF00C0E0C398F8603B94186008400DD0E0FB9C
:100BBF000209DAE4FBFAC9FC8028E830E406E4C94C
:100BCF00FBE4CAFCE830E305E4C9CACBFCE85407F0
:100BDF006010F8C3E913F9EA13FAEB13FBEC13FCFB
:100BEF00D8F130F52FC3E49CFCEF9BFFEE9AFEED9E
:100BFF0099FDD0E0FBEF4E4D4C701222DB03020942
:100C0F00FFEC2CFCEF33FFEE33FEED33FDED30E761
:100C1F00EB0209DAEF2BFFEE3AFEED39FDD0E0FBE8
:100C2F0050130BBB0003020A02ED13FDEE13FEEF90
:080C3F0013FFEC13FC0209DABB
:100C4700020A02EC5D046005E8590470030209F822
:100C57001209C3580460F6EC4860F2EC7004FDFE1C
:100C6700FF22C860DB2481C85009C3986002500680
:100C77000209FF9850CAF582E9294B4A7005AB82F1
:100C87000209EE75F0007C1A7880C3EF9BEE9AEDAF
:100C970099400DC3EF9BFFEE9AFEED99FDE842F0F8
:100CA700DC23ACF0D0E0FFD0E0FED0E0FDAB82204B
:100CB700E7101BEB60BAEC2CFCEF33FFEE33FEEDD5
:100CC70033FD0209DAE803F830E705C0F075F000F4
:100CD700EF2FFFEE33FEED33FD40B830E7C280AAB9
:100CE7003F8000004120000042C80000447A000015
:100CF700461C400047C35000497424004B18968097
:100D07004CBEBC205A0E1BCA6753C21C749DC5AE8D
:100D1700FB60065407601C2323120D45EB54386013
:100D270009120D31120D40120806ECF8EDF9EEFA32
:100D3700EFCB22EB120D4080F1543803241C900CAA
:100D4700E7FE93FC0EEE93FD0EEE930ECE93FF227D
:030000000219D50D
:0C19D500787FE4F6D8FD758121021A1C11
:100D5700BB010689828A83E0225002E722BBFE029A
:090D6700E32289828A83E49322CD
:100D7000BB010CE58229F582E5833AF583E0225038
:100D800006E92582F8E622BBFE06E92582F8E22282
:0D0D9000E58229F582E5833AF583E493229C
:100D9D00BB010689828A83F0225002F722BBFE0135
:020DAD00F3222F
:100DAF00EF8DF0A4A8F0CF8CF0A428CE8DF0A42E58
:020DBF00FE2212
:100DC100C5F0F8A3E028F0C5F0F8E58215827002BD
:060DD1001583E038F0225A
:100DD700A3F8E0C5F025F0F0E582158270021583CF
:060DE700E0C838F0E8222C
:0E0DED00C3E49FFFE49EFEE49DFDE49CFC2217
:0C0DFB00ECF0A3EDF0A3EEF0A3EFF0226B
:100E0700F8E0FBA3A3E0F925F0F0E5821582700274
:070E17001583E0FA38F02218
:090E1E00EBF0A3EAF0A3E9F022D5
:100E2700D083D082F8E4937012740193700DA3A35A
:100E370093F8740193F5828883E47374029368606E
:060E4700EFA3A3A380DF6E
:1015CF00900019EBF0A3EAF0A3E9F0A3E0FBA3E08E
:1015DF00FAA3E0F9120D57700302167B900019E081
:1015EF00FBA3E0FAA3E0F9120D57700302168790E0
:1015FF00001CE0F9A3E0FAA3E0A3C9F0A3EAF0A36B
:10160F00E9F0900019A3E0FAA3E0F9900022EBF0C3
:10161F00A3EAF0A3E9F090001FE0FBA3E0FAA3E038
:10162F00F9120D57FF6026900022E0FBA3E0FAA30A
:10163F00E0F9120D576F701590002075F001120D23
:10164F00C1900023E475F001120DC180C990001FF5
:10165F00E0FBA3E0FAA3E0F9120D577002800D90A2
:10166F00001AE475F001120DC10215EB900019E09C
:0F167F00FBA3E0FAA3E0F9227B007A00790022B6
:100E4D00EF4E6012EF60010EEDBB010B89828A83BC
:100E5D00F0A3DFFCDEFA2289F05007F709DFFCA9C9
:0C0E6D00F022BBFEFCF309DFFCA9F02220
:1019E1000212FCE493A3F8E493A34003F68001F20E
:1019F10008DFF48029E493A3F85407240CC8C33307
:101A0100C4540F4420C8834004F456800146F6DFD5
:101A1100E4800B0102040810204080902074E47ED1
:101A2100019360BCA3FF543F30E509541FFEE493CA
:101A3100A360010ECF54C025E060A840B8E493A391
:101A4100FAE493A3F8E493A3C8C582C8CAC583CABC
:101A5100F0A3C8C582C8CAC583CADFE9DEE780BE74
:01208500005A
:00000001FF
